{
	"contracts/StackOperations.sol": {
		"StackOperations": {
			"abi": [
				{
					"anonymous": false,
					"inputs": [
						{
							"indexed": false,
							"internalType": "uint256",
							"name": "a",
							"type": "uint256"
						},
						{
							"indexed": false,
							"internalType": "uint256",
							"name": "b",
							"type": "uint256"
						},
						{
							"indexed": false,
							"internalType": "uint256",
							"name": "result",
							"type": "uint256"
						}
					],
					"name": "Added",
					"type": "event"
				},
				{
					"anonymous": false,
					"inputs": [
						{
							"indexed": false,
							"internalType": "uint256",
							"name": "value",
							"type": "uint256"
						}
					],
					"name": "Popped",
					"type": "event"
				},
				{
					"anonymous": false,
					"inputs": [
						{
							"indexed": false,
							"internalType": "uint256",
							"name": "value",
							"type": "uint256"
						}
					],
					"name": "Pushed",
					"type": "event"
				},
				{
					"anonymous": false,
					"inputs": [
						{
							"indexed": false,
							"internalType": "uint256",
							"name": "a",
							"type": "uint256"
						},
						{
							"indexed": false,
							"internalType": "uint256",
							"name": "b",
							"type": "uint256"
						},
						{
							"indexed": false,
							"internalType": "uint256",
							"name": "result",
							"type": "uint256"
						}
					],
					"name": "Subtracted",
					"type": "event"
				},
				{
					"inputs": [],
					"name": "add",
					"outputs": [],
					"stateMutability": "nonpayable",
					"type": "function"
				},
				{
					"inputs": [],
					"name": "getStack",
					"outputs": [
						{
							"internalType": "uint256[]",
							"name": "",
							"type": "uint256[]"
						}
					],
					"stateMutability": "view",
					"type": "function"
				},
				{
					"inputs": [],
					"name": "pop",
					"outputs": [
						{
							"internalType": "uint256",
							"name": "",
							"type": "uint256"
						}
					],
					"stateMutability": "nonpayable",
					"type": "function"
				},
				{
					"inputs": [
						{
							"internalType": "uint256",
							"name": "value",
							"type": "uint256"
						}
					],
					"name": "push",
					"outputs": [],
					"stateMutability": "nonpayable",
					"type": "function"
				},
				{
					"inputs": [],
					"name": "sub",
					"outputs": [],
					"stateMutability": "nonpayable",
					"type": "function"
				}
			],
			"devdoc": {
				"kind": "dev",
				"methods": {},
				"version": 1
			},
			"evm": {
				"assembly": "    /* \"contracts/StackOperations.sol\":57:1241  contract StackOperations{... */\n  mstore(0x40, 0x80)\n  callvalue\n  dup1\n  iszero\n  tag_1\n  jumpi\n  0x00\n  dup1\n  revert\ntag_1:\n  pop\n  dataSize(sub_0)\n  dup1\n  dataOffset(sub_0)\n  0x00\n  codecopy\n  0x00\n  return\nstop\n\nsub_0: assembly {\n        /* \"contracts/StackOperations.sol\":57:1241  contract StackOperations{... */\n      mstore(0x40, 0x80)\n      callvalue\n      dup1\n      iszero\n      tag_1\n      jumpi\n      0x00\n      dup1\n      revert\n    tag_1:\n      pop\n      jumpi(tag_2, lt(calldatasize, 0x04))\n      shr(0xe0, calldataload(0x00))\n      dup1\n      0x4b2a5002\n      eq\n      tag_3\n      jumpi\n      dup1\n      0x4f2be91f\n      eq\n      tag_4\n      jumpi\n      dup1\n      0x959ac484\n      eq\n      tag_5\n      jumpi\n      dup1\n      0xa4ece52c\n      eq\n      tag_6\n      jumpi\n      dup1\n      0xc54124be\n      eq\n      tag_7\n      jumpi\n    tag_2:\n      0x00\n      dup1\n      revert\n        /* \"contracts/StackOperations.sol\":1152:1239  function getStack() public view returns(uint256[] memory) {... */\n    tag_3:\n      tag_8\n      tag_9\n      jump\t// in\n    tag_8:\n      mload(0x40)\n      tag_10\n      swap2\n      swap1\n      tag_11\n      jump\t// in\n    tag_10:\n      mload(0x40)\n      dup1\n      swap2\n      sub\n      swap1\n      return\n        /* \"contracts/StackOperations.sol\":659:892  function add() public {... */\n    tag_4:\n      tag_12\n      tag_13\n      jump\t// in\n    tag_12:\n      stop\n        /* \"contracts/StackOperations.sol\":310:407  function push(uint256 value) public{... */\n    tag_5:\n      tag_14\n      0x04\n      dup1\n      calldatasize\n      sub\n      dup2\n      add\n      swap1\n      tag_15\n      swap2\n      swap1\n      tag_16\n      jump\t// in\n    tag_15:\n      tag_17\n      jump\t// in\n    tag_14:\n      stop\n        /* \"contracts/StackOperations.sol\":424:643  function pop() public returns (uint256) {... */\n    tag_6:\n      tag_18\n      tag_19\n      jump\t// in\n    tag_18:\n      mload(0x40)\n      tag_20\n      swap2\n      swap1\n      tag_21\n      jump\t// in\n    tag_20:\n      mload(0x40)\n      dup1\n      swap2\n      sub\n      swap1\n      return\n        /* \"contracts/StackOperations.sol\":908:1146  function sub() public {... */\n    tag_7:\n      tag_22\n      tag_23\n      jump\t// in\n    tag_22:\n      stop\n        /* \"contracts/StackOperations.sol\":1152:1239  function getStack() public view returns(uint256[] memory) {... */\n    tag_9:\n        /* \"contracts/StackOperations.sol\":1192:1208  uint256[] memory */\n      0x60\n        /* \"contracts/StackOperations.sol\":1227:1232  stack */\n      0x00\n        /* \"contracts/StackOperations.sol\":1220:1232  return stack */\n      dup1\n      sload\n      dup1\n      0x20\n      mul\n      0x20\n      add\n      mload(0x40)\n      swap1\n      dup2\n      add\n      0x40\n      mstore\n      dup1\n      swap3\n      swap2\n      swap1\n      dup2\n      dup2\n      mstore\n      0x20\n      add\n      dup3\n      dup1\n      sload\n      dup1\n      iszero\n      tag_25\n      jumpi\n      0x20\n      mul\n      dup3\n      add\n      swap2\n      swap1\n      0x00\n      mstore\n      keccak256(0x00, 0x20)\n      swap1\n    tag_26:\n      dup2\n      sload\n      dup2\n      mstore\n      0x20\n      add\n      swap1\n      0x01\n      add\n      swap1\n      dup1\n      dup4\n      gt\n      tag_26\n      jumpi\n    tag_25:\n      pop\n      pop\n      pop\n      pop\n      pop\n      swap1\n      pop\n        /* \"contracts/StackOperations.sol\":1152:1239  function getStack() public view returns(uint256[] memory) {... */\n      swap1\n      jump\t// out\n        /* \"contracts/StackOperations.sol\":659:892  function add() public {... */\n    tag_13:\n        /* \"contracts/StackOperations.sol\":715:716  2 */\n      0x02\n        /* \"contracts/StackOperations.sol\":699:704  stack */\n      0x00\n        /* \"contracts/StackOperations.sol\":699:711  stack.length */\n      dup1\n      sload\n      swap1\n      pop\n        /* \"contracts/StackOperations.sol\":699:716  stack.length >= 2 */\n      lt\n      iszero\n        /* \"contracts/StackOperations.sol\":691:747  require(stack.length >= 2, \"Not enough values on stack\") */\n      tag_28\n      jumpi\n      mload(0x40)\n      0x08c379a000000000000000000000000000000000000000000000000000000000\n      dup2\n      mstore\n      0x04\n      add\n      tag_29\n      swap1\n      tag_30\n      jump\t// in\n    tag_29:\n      mload(0x40)\n      dup1\n      swap2\n      sub\n      swap1\n      revert\n    tag_28:\n        /* \"contracts/StackOperations.sol\":757:766  uint256 a */\n      0x00\n        /* \"contracts/StackOperations.sol\":769:774  pop() */\n      tag_31\n        /* \"contracts/StackOperations.sol\":769:772  pop */\n      tag_19\n        /* \"contracts/StackOperations.sol\":769:774  pop() */\n      jump\t// in\n    tag_31:\n        /* \"contracts/StackOperations.sol\":757:774  uint256 a = pop() */\n      swap1\n      pop\n        /* \"contracts/StackOperations.sol\":784:793  uint256 b */\n      0x00\n        /* \"contracts/StackOperations.sol\":796:801  pop() */\n      tag_32\n        /* \"contracts/StackOperations.sol\":796:799  pop */\n      tag_19\n        /* \"contracts/StackOperations.sol\":796:801  pop() */\n      jump\t// in\n    tag_32:\n        /* \"contracts/StackOperations.sol\":784:801  uint256 b = pop() */\n      swap1\n      pop\n        /* \"contracts/StackOperations.sol\":811:825  uint256 result */\n      0x00\n        /* \"contracts/StackOperations.sol\":830:831  b */\n      dup2\n        /* \"contracts/StackOperations.sol\":828:829  a */\n      dup4\n        /* \"contracts/StackOperations.sol\":828:831  a+b */\n      tag_33\n      swap2\n      swap1\n      tag_34\n      jump\t// in\n    tag_33:\n        /* \"contracts/StackOperations.sol\":811:831  uint256 result = a+b */\n      swap1\n      pop\n        /* \"contracts/StackOperations.sol\":841:853  push(result) */\n      tag_35\n        /* \"contracts/StackOperations.sol\":846:852  result */\n      dup2\n        /* \"contracts/StackOperations.sol\":841:845  push */\n      tag_17\n        /* \"contracts/StackOperations.sol\":841:853  push(result) */\n      jump\t// in\n    tag_35:\n        /* \"contracts/StackOperations.sol\":868:885  Added(a,b,result) */\n      0xdacd6915a3133d6443fa6889ce5516423d4c55eb78865bff55807a282e1a0040\n        /* \"contracts/StackOperations.sol\":874:875  a */\n      dup4\n        /* \"contracts/StackOperations.sol\":876:877  b */\n      dup4\n        /* \"contracts/StackOperations.sol\":878:884  result */\n      dup4\n        /* \"contracts/StackOperations.sol\":868:885  Added(a,b,result) */\n      mload(0x40)\n      tag_36\n      swap4\n      swap3\n      swap2\n      swap1\n      tag_37\n      jump\t// in\n    tag_36:\n      mload(0x40)\n      dup1\n      swap2\n      sub\n      swap1\n      log1\n        /* \"contracts/StackOperations.sol\":681:892  {... */\n      pop\n      pop\n      pop\n        /* \"contracts/StackOperations.sol\":659:892  function add() public {... */\n      jump\t// out\n        /* \"contracts/StackOperations.sol\":310:407  function push(uint256 value) public{... */\n    tag_17:\n        /* \"contracts/StackOperations.sol\":355:360  stack */\n      0x00\n        /* \"contracts/StackOperations.sol\":366:371  value */\n      dup2\n        /* \"contracts/StackOperations.sol\":355:372  stack.push(value) */\n      swap1\n      dup1\n      0x01\n      dup2\n      sload\n      add\n      dup1\n      dup3\n      sstore\n      dup1\n      swap2\n      pop\n      pop\n      0x01\n      swap1\n      sub\n      swap1\n      0x00\n      mstore\n      keccak256(0x00, 0x20)\n      add\n      0x00\n      swap1\n      swap2\n      swap1\n      swap2\n      swap1\n      swap2\n      pop\n      sstore\n        /* \"contracts/StackOperations.sol\":387:400  Pushed(value) */\n      0x596330851ac25e6ec8c92072a44a9e57b03eb6a0a2388a73770a0ac191524f98\n        /* \"contracts/StackOperations.sol\":394:399  value */\n      dup2\n        /* \"contracts/StackOperations.sol\":387:400  Pushed(value) */\n      mload(0x40)\n      tag_40\n      swap2\n      swap1\n      tag_21\n      jump\t// in\n    tag_40:\n      mload(0x40)\n      dup1\n      swap2\n      sub\n      swap1\n      log1\n        /* \"contracts/StackOperations.sol\":310:407  function push(uint256 value) public{... */\n      pop\n      jump\t// out\n        /* \"contracts/StackOperations.sol\":424:643  function pop() public returns (uint256) {... */\n    tag_19:\n        /* \"contracts/StackOperations.sol\":455:462  uint256 */\n      0x00\n        /* \"contracts/StackOperations.sol\":497:498  0 */\n      dup1\n        /* \"contracts/StackOperations.sol\":482:487  stack */\n      0x00\n        /* \"contracts/StackOperations.sol\":482:494  stack.length */\n      dup1\n      sload\n      swap1\n      pop\n        /* \"contracts/StackOperations.sol\":482:498  stack.length > 0 */\n      gt\n        /* \"contracts/StackOperations.sol\":474:518  require(stack.length > 0, \"Stack underflow\") */\n      tag_42\n      jumpi\n      mload(0x40)\n      0x08c379a000000000000000000000000000000000000000000000000000000000\n      dup2\n      mstore\n      0x04\n      add\n      tag_43\n      swap1\n      tag_44\n      jump\t// in\n    tag_43:\n      mload(0x40)\n      dup1\n      swap2\n      sub\n      swap1\n      revert\n    tag_42:\n        /* \"contracts/StackOperations.sol\":528:541  uint256 value */\n      0x00\n        /* \"contracts/StackOperations.sol\":544:549  stack */\n      dup1\n        /* \"contracts/StackOperations.sol\":563:564  1 */\n      0x01\n        /* \"contracts/StackOperations.sol\":550:555  stack */\n      0x00\n        /* \"contracts/StackOperations.sol\":550:562  stack.length */\n      dup1\n      sload\n      swap1\n      pop\n        /* \"contracts/StackOperations.sol\":550:564  stack.length-1 */\n      tag_45\n      swap2\n      swap1\n      tag_46\n      jump\t// in\n    tag_45:\n        /* \"contracts/StackOperations.sol\":544:565  stack[stack.length-1] */\n      dup2\n      sload\n      dup2\n      lt\n      tag_47\n      jumpi\n      tag_48\n      tag_49\n      jump\t// in\n    tag_48:\n    tag_47:\n      swap1\n      0x00\n      mstore\n      keccak256(0x00, 0x20)\n      add\n      sload\n        /* \"contracts/StackOperations.sol\":528:565  uint256 value = stack[stack.length-1] */\n      swap1\n      pop\n        /* \"contracts/StackOperations.sol\":575:580  stack */\n      0x00\n        /* \"contracts/StackOperations.sol\":575:586  stack.pop() */\n      dup1\n      sload\n      dup1\n      tag_51\n      jumpi\n      tag_52\n      tag_53\n      jump\t// in\n    tag_52:\n    tag_51:\n      0x01\n      swap1\n      sub\n      dup2\n      dup2\n      swap1\n      0x00\n      mstore\n      keccak256(0x00, 0x20)\n      add\n      0x00\n      swap1\n      sstore\n      swap1\n      sstore\n        /* \"contracts/StackOperations.sol\":601:614  Popped(value) */\n      0xb426e6a2f9f462930f4e0b75db70f45d24ce86b097036da40ac1aca07848cd1e\n        /* \"contracts/StackOperations.sol\":608:613  value */\n      dup2\n        /* \"contracts/StackOperations.sol\":601:614  Popped(value) */\n      mload(0x40)\n      tag_55\n      swap2\n      swap1\n      tag_21\n      jump\t// in\n    tag_55:\n      mload(0x40)\n      dup1\n      swap2\n      sub\n      swap1\n      log1\n        /* \"contracts/StackOperations.sol\":631:636  value */\n      dup1\n        /* \"contracts/StackOperations.sol\":624:636  return value */\n      swap2\n      pop\n      pop\n        /* \"contracts/StackOperations.sol\":424:643  function pop() public returns (uint256) {... */\n      swap1\n      jump\t// out\n        /* \"contracts/StackOperations.sol\":908:1146  function sub() public {... */\n    tag_23:\n        /* \"contracts/StackOperations.sol\":964:965  2 */\n      0x02\n        /* \"contracts/StackOperations.sol\":948:953  stack */\n      0x00\n        /* \"contracts/StackOperations.sol\":948:960  stack.length */\n      dup1\n      sload\n      swap1\n      pop\n        /* \"contracts/StackOperations.sol\":948:965  stack.length >= 2 */\n      lt\n      iszero\n        /* \"contracts/StackOperations.sol\":940:996  require(stack.length >= 2, \"Not enough values on stack\") */\n      tag_57\n      jumpi\n      mload(0x40)\n      0x08c379a000000000000000000000000000000000000000000000000000000000\n      dup2\n      mstore\n      0x04\n      add\n      tag_58\n      swap1\n      tag_30\n      jump\t// in\n    tag_58:\n      mload(0x40)\n      dup1\n      swap2\n      sub\n      swap1\n      revert\n    tag_57:\n        /* \"contracts/StackOperations.sol\":1006:1015  uint256 a */\n      0x00\n        /* \"contracts/StackOperations.sol\":1018:1023  pop() */\n      tag_59\n        /* \"contracts/StackOperations.sol\":1018:1021  pop */\n      tag_19\n        /* \"contracts/StackOperations.sol\":1018:1023  pop() */\n      jump\t// in\n    tag_59:\n        /* \"contracts/StackOperations.sol\":1006:1023  uint256 a = pop() */\n      swap1\n      pop\n        /* \"contracts/StackOperations.sol\":1033:1042  uint256 b */\n      0x00\n        /* \"contracts/StackOperations.sol\":1045:1050  pop() */\n      tag_60\n        /* \"contracts/StackOperations.sol\":1045:1048  pop */\n      tag_19\n        /* \"contracts/StackOperations.sol\":1045:1050  pop() */\n      jump\t// in\n    tag_60:\n        /* \"contracts/StackOperations.sol\":1033:1050  uint256 b = pop() */\n      swap1\n      pop\n        /* \"contracts/StackOperations.sol\":1060:1074  uint256 result */\n      0x00\n        /* \"contracts/StackOperations.sol\":1079:1080  b */\n      dup2\n        /* \"contracts/StackOperations.sol\":1077:1078  a */\n      dup4\n        /* \"contracts/StackOperations.sol\":1077:1080  a-b */\n      tag_61\n      swap2\n      swap1\n      tag_46\n      jump\t// in\n    tag_61:\n        /* \"contracts/StackOperations.sol\":1060:1080  uint256 result = a-b */\n      swap1\n      pop\n        /* \"contracts/StackOperations.sol\":1090:1102  push(result) */\n      tag_62\n        /* \"contracts/StackOperations.sol\":1095:1101  result */\n      dup2\n        /* \"contracts/StackOperations.sol\":1090:1094  push */\n      tag_17\n        /* \"contracts/StackOperations.sol\":1090:1102  push(result) */\n      jump\t// in\n    tag_62:\n        /* \"contracts/StackOperations.sol\":1117:1139  Subtracted(a,b,result) */\n      0x1e13faa901d9fb24596bfc51e20e20abb535f0ad7541d284e9e4dc6e893771d7\n        /* \"contracts/StackOperations.sol\":1128:1129  a */\n      dup4\n        /* \"contracts/StackOperations.sol\":1130:1131  b */\n      dup4\n        /* \"contracts/StackOperations.sol\":1132:1138  result */\n      dup4\n        /* \"contracts/StackOperations.sol\":1117:1139  Subtracted(a,b,result) */\n      mload(0x40)\n      tag_63\n      swap4\n      swap3\n      swap2\n      swap1\n      tag_37\n      jump\t// in\n    tag_63:\n      mload(0x40)\n      dup1\n      swap2\n      sub\n      swap1\n      log1\n        /* \"contracts/StackOperations.sol\":930:1146  {... */\n      pop\n      pop\n      pop\n        /* \"contracts/StackOperations.sol\":908:1146  function sub() public {... */\n      jump\t// out\n        /* \"#utility.yul\":7:121   */\n    tag_64:\n        /* \"#utility.yul\":74:80   */\n      0x00\n        /* \"#utility.yul\":108:113   */\n      dup2\n        /* \"#utility.yul\":102:114   */\n      mload\n        /* \"#utility.yul\":92:114   */\n      swap1\n      pop\n        /* \"#utility.yul\":7:121   */\n      swap2\n      swap1\n      pop\n      jump\t// out\n        /* \"#utility.yul\":127:311   */\n    tag_65:\n        /* \"#utility.yul\":226:237   */\n      0x00\n        /* \"#utility.yul\":260:266   */\n      dup3\n        /* \"#utility.yul\":255:258   */\n      dup3\n        /* \"#utility.yul\":248:267   */\n      mstore\n        /* \"#utility.yul\":300:304   */\n      0x20\n        /* \"#utility.yul\":295:298   */\n      dup3\n        /* \"#utility.yul\":291:305   */\n      add\n        /* \"#utility.yul\":276:305   */\n      swap1\n      pop\n        /* \"#utility.yul\":127:311   */\n      swap3\n      swap2\n      pop\n      pop\n      jump\t// out\n        /* \"#utility.yul\":317:449   */\n    tag_66:\n        /* \"#utility.yul\":384:388   */\n      0x00\n        /* \"#utility.yul\":407:410   */\n      dup2\n        /* \"#utility.yul\":399:410   */\n      swap1\n      pop\n        /* \"#utility.yul\":437:441   */\n      0x20\n        /* \"#utility.yul\":432:435   */\n      dup3\n        /* \"#utility.yul\":428:442   */\n      add\n        /* \"#utility.yul\":420:442   */\n      swap1\n      pop\n        /* \"#utility.yul\":317:449   */\n      swap2\n      swap1\n      pop\n      jump\t// out\n        /* \"#utility.yul\":455:532   */\n    tag_67:\n        /* \"#utility.yul\":492:499   */\n      0x00\n        /* \"#utility.yul\":521:526   */\n      dup2\n        /* \"#utility.yul\":510:526   */\n      swap1\n      pop\n        /* \"#utility.yul\":455:532   */\n      swap2\n      swap1\n      pop\n      jump\t// out\n        /* \"#utility.yul\":538:646   */\n    tag_68:\n        /* \"#utility.yul\":615:639   */\n      tag_90\n        /* \"#utility.yul\":633:638   */\n      dup2\n        /* \"#utility.yul\":615:639   */\n      tag_67\n      jump\t// in\n    tag_90:\n        /* \"#utility.yul\":610:613   */\n      dup3\n        /* \"#utility.yul\":603:640   */\n      mstore\n        /* \"#utility.yul\":538:646   */\n      pop\n      pop\n      jump\t// out\n        /* \"#utility.yul\":652:831   */\n    tag_69:\n        /* \"#utility.yul\":721:731   */\n      0x00\n        /* \"#utility.yul\":742:788   */\n      tag_92\n        /* \"#utility.yul\":784:787   */\n      dup4\n        /* \"#utility.yul\":776:782   */\n      dup4\n        /* \"#utility.yul\":742:788   */\n      tag_68\n      jump\t// in\n    tag_92:\n        /* \"#utility.yul\":820:824   */\n      0x20\n        /* \"#utility.yul\":815:818   */\n      dup4\n        /* \"#utility.yul\":811:825   */\n      add\n        /* \"#utility.yul\":797:825   */\n      swap1\n      pop\n        /* \"#utility.yul\":652:831   */\n      swap3\n      swap2\n      pop\n      pop\n      jump\t// out\n        /* \"#utility.yul\":837:950   */\n    tag_70:\n        /* \"#utility.yul\":907:911   */\n      0x00\n        /* \"#utility.yul\":939:943   */\n      0x20\n        /* \"#utility.yul\":934:937   */\n      dup3\n        /* \"#utility.yul\":930:944   */\n      add\n        /* \"#utility.yul\":922:944   */\n      swap1\n      pop\n        /* \"#utility.yul\":837:950   */\n      swap2\n      swap1\n      pop\n      jump\t// out\n        /* \"#utility.yul\":986:1718   */\n    tag_71:\n        /* \"#utility.yul\":1105:1108   */\n      0x00\n        /* \"#utility.yul\":1134:1188   */\n      tag_95\n        /* \"#utility.yul\":1182:1187   */\n      dup3\n        /* \"#utility.yul\":1134:1188   */\n      tag_64\n      jump\t// in\n    tag_95:\n        /* \"#utility.yul\":1204:1290   */\n      tag_96\n        /* \"#utility.yul\":1283:1289   */\n      dup2\n        /* \"#utility.yul\":1278:1281   */\n      dup6\n        /* \"#utility.yul\":1204:1290   */\n      tag_65\n      jump\t// in\n    tag_96:\n        /* \"#utility.yul\":1197:1290   */\n      swap4\n      pop\n        /* \"#utility.yul\":1314:1370   */\n      tag_97\n        /* \"#utility.yul\":1364:1369   */\n      dup4\n        /* \"#utility.yul\":1314:1370   */\n      tag_66\n      jump\t// in\n    tag_97:\n        /* \"#utility.yul\":1393:1400   */\n      dup1\n        /* \"#utility.yul\":1424:1425   */\n      0x00\n        /* \"#utility.yul\":1409:1693   */\n    tag_98:\n        /* \"#utility.yul\":1434:1440   */\n      dup4\n        /* \"#utility.yul\":1431:1432   */\n      dup2\n        /* \"#utility.yul\":1428:1441   */\n      lt\n        /* \"#utility.yul\":1409:1693   */\n      iszero\n      tag_100\n      jumpi\n        /* \"#utility.yul\":1510:1516   */\n      dup2\n        /* \"#utility.yul\":1504:1517   */\n      mload\n        /* \"#utility.yul\":1537:1600   */\n      tag_101\n        /* \"#utility.yul\":1596:1599   */\n      dup9\n        /* \"#utility.yul\":1581:1594   */\n      dup3\n        /* \"#utility.yul\":1537:1600   */\n      tag_69\n      jump\t// in\n    tag_101:\n        /* \"#utility.yul\":1530:1600   */\n      swap8\n      pop\n        /* \"#utility.yul\":1623:1683   */\n      tag_102\n        /* \"#utility.yul\":1676:1682   */\n      dup4\n        /* \"#utility.yul\":1623:1683   */\n      tag_70\n      jump\t// in\n    tag_102:\n        /* \"#utility.yul\":1613:1683   */\n      swap3\n      pop\n        /* \"#utility.yul\":1469:1693   */\n      pop\n        /* \"#utility.yul\":1456:1457   */\n      0x01\n        /* \"#utility.yul\":1453:1454   */\n      dup2\n        /* \"#utility.yul\":1449:1458   */\n      add\n        /* \"#utility.yul\":1444:1458   */\n      swap1\n      pop\n        /* \"#utility.yul\":1409:1693   */\n      jump(tag_98)\n    tag_100:\n        /* \"#utility.yul\":1413:1427   */\n      pop\n        /* \"#utility.yul\":1709:1712   */\n      dup6\n        /* \"#utility.yul\":1702:1712   */\n      swap4\n      pop\n        /* \"#utility.yul\":1110:1718   */\n      pop\n      pop\n      pop\n        /* \"#utility.yul\":986:1718   */\n      swap3\n      swap2\n      pop\n      pop\n      jump\t// out\n        /* \"#utility.yul\":1724:2097   */\n    tag_11:\n        /* \"#utility.yul\":1867:1871   */\n      0x00\n        /* \"#utility.yul\":1905:1907   */\n      0x20\n        /* \"#utility.yul\":1894:1903   */\n      dup3\n        /* \"#utility.yul\":1890:1908   */\n      add\n        /* \"#utility.yul\":1882:1908   */\n      swap1\n      pop\n        /* \"#utility.yul\":1954:1963   */\n      dup2\n        /* \"#utility.yul\":1948:1952   */\n      dup2\n        /* \"#utility.yul\":1944:1964   */\n      sub\n        /* \"#utility.yul\":1940:1941   */\n      0x00\n        /* \"#utility.yul\":1929:1938   */\n      dup4\n        /* \"#utility.yul\":1925:1942   */\n      add\n        /* \"#utility.yul\":1918:1965   */\n      mstore\n        /* \"#utility.yul\":1982:2090   */\n      tag_104\n        /* \"#utility.yul\":2085:2089   */\n      dup2\n        /* \"#utility.yul\":2076:2082   */\n      dup5\n        /* \"#utility.yul\":1982:2090   */\n      tag_71\n      jump\t// in\n    tag_104:\n        /* \"#utility.yul\":1974:2090   */\n      swap1\n      pop\n        /* \"#utility.yul\":1724:2097   */\n      swap3\n      swap2\n      pop\n      pop\n      jump\t// out\n        /* \"#utility.yul\":2184:2301   */\n    tag_73:\n        /* \"#utility.yul\":2293:2294   */\n      0x00\n        /* \"#utility.yul\":2290:2291   */\n      dup1\n        /* \"#utility.yul\":2283:2295   */\n      revert\n        /* \"#utility.yul\":2430:2552   */\n    tag_75:\n        /* \"#utility.yul\":2503:2527   */\n      tag_109\n        /* \"#utility.yul\":2521:2526   */\n      dup2\n        /* \"#utility.yul\":2503:2527   */\n      tag_67\n      jump\t// in\n    tag_109:\n        /* \"#utility.yul\":2496:2501   */\n      dup2\n        /* \"#utility.yul\":2493:2528   */\n      eq\n        /* \"#utility.yul\":2483:2546   */\n      tag_110\n      jumpi\n        /* \"#utility.yul\":2542:2543   */\n      0x00\n        /* \"#utility.yul\":2539:2540   */\n      dup1\n        /* \"#utility.yul\":2532:2544   */\n      revert\n        /* \"#utility.yul\":2483:2546   */\n    tag_110:\n        /* \"#utility.yul\":2430:2552   */\n      pop\n      jump\t// out\n        /* \"#utility.yul\":2558:2697   */\n    tag_76:\n        /* \"#utility.yul\":2604:2609   */\n      0x00\n        /* \"#utility.yul\":2642:2648   */\n      dup2\n        /* \"#utility.yul\":2629:2649   */\n      calldataload\n        /* \"#utility.yul\":2620:2649   */\n      swap1\n      pop\n        /* \"#utility.yul\":2658:2691   */\n      tag_112\n        /* \"#utility.yul\":2685:2690   */\n      dup2\n        /* \"#utility.yul\":2658:2691   */\n      tag_75\n      jump\t// in\n    tag_112:\n        /* \"#utility.yul\":2558:2697   */\n      swap3\n      swap2\n      pop\n      pop\n      jump\t// out\n        /* \"#utility.yul\":2703:3032   */\n    tag_16:\n        /* \"#utility.yul\":2762:2768   */\n      0x00\n        /* \"#utility.yul\":2811:2813   */\n      0x20\n        /* \"#utility.yul\":2799:2808   */\n      dup3\n        /* \"#utility.yul\":2790:2797   */\n      dup5\n        /* \"#utility.yul\":2786:2809   */\n      sub\n        /* \"#utility.yul\":2782:2814   */\n      slt\n        /* \"#utility.yul\":2779:2898   */\n      iszero\n      tag_114\n      jumpi\n        /* \"#utility.yul\":2817:2896   */\n      tag_115\n      tag_73\n      jump\t// in\n    tag_115:\n        /* \"#utility.yul\":2779:2898   */\n    tag_114:\n        /* \"#utility.yul\":2937:2938   */\n      0x00\n        /* \"#utility.yul\":2962:3015   */\n      tag_116\n        /* \"#utility.yul\":3007:3014   */\n      dup5\n        /* \"#utility.yul\":2998:3004   */\n      dup3\n        /* \"#utility.yul\":2987:2996   */\n      dup6\n        /* \"#utility.yul\":2983:3005   */\n      add\n        /* \"#utility.yul\":2962:3015   */\n      tag_76\n      jump\t// in\n    tag_116:\n        /* \"#utility.yul\":2952:3015   */\n      swap2\n      pop\n        /* \"#utility.yul\":2908:3025   */\n      pop\n        /* \"#utility.yul\":2703:3032   */\n      swap3\n      swap2\n      pop\n      pop\n      jump\t// out\n        /* \"#utility.yul\":3038:3156   */\n    tag_77:\n        /* \"#utility.yul\":3125:3149   */\n      tag_118\n        /* \"#utility.yul\":3143:3148   */\n      dup2\n        /* \"#utility.yul\":3125:3149   */\n      tag_67\n      jump\t// in\n    tag_118:\n        /* \"#utility.yul\":3120:3123   */\n      dup3\n        /* \"#utility.yul\":3113:3150   */\n      mstore\n        /* \"#utility.yul\":3038:3156   */\n      pop\n      pop\n      jump\t// out\n        /* \"#utility.yul\":3162:3384   */\n    tag_21:\n        /* \"#utility.yul\":3255:3259   */\n      0x00\n        /* \"#utility.yul\":3293:3295   */\n      0x20\n        /* \"#utility.yul\":3282:3291   */\n      dup3\n        /* \"#utility.yul\":3278:3296   */\n      add\n        /* \"#utility.yul\":3270:3296   */\n      swap1\n      pop\n        /* \"#utility.yul\":3306:3377   */\n      tag_120\n        /* \"#utility.yul\":3374:3375   */\n      0x00\n        /* \"#utility.yul\":3363:3372   */\n      dup4\n        /* \"#utility.yul\":3359:3376   */\n      add\n        /* \"#utility.yul\":3350:3356   */\n      dup5\n        /* \"#utility.yul\":3306:3377   */\n      tag_77\n      jump\t// in\n    tag_120:\n        /* \"#utility.yul\":3162:3384   */\n      swap3\n      swap2\n      pop\n      pop\n      jump\t// out\n        /* \"#utility.yul\":3390:3559   */\n    tag_78:\n        /* \"#utility.yul\":3474:3485   */\n      0x00\n        /* \"#utility.yul\":3508:3514   */\n      dup3\n        /* \"#utility.yul\":3503:3506   */\n      dup3\n        /* \"#utility.yul\":3496:3515   */\n      mstore\n        /* \"#utility.yul\":3548:3552   */\n      0x20\n        /* \"#utility.yul\":3543:3546   */\n      dup3\n        /* \"#utility.yul\":3539:3553   */\n      add\n        /* \"#utility.yul\":3524:3553   */\n      swap1\n      pop\n        /* \"#utility.yul\":3390:3559   */\n      swap3\n      swap2\n      pop\n      pop\n      jump\t// out\n        /* \"#utility.yul\":3565:3741   */\n    tag_79:\n        /* \"#utility.yul\":3705:3733   */\n      0x4e6f7420656e6f7567682076616c756573206f6e20737461636b000000000000\n        /* \"#utility.yul\":3701:3702   */\n      0x00\n        /* \"#utility.yul\":3693:3699   */\n      dup3\n        /* \"#utility.yul\":3689:3703   */\n      add\n        /* \"#utility.yul\":3682:3734   */\n      mstore\n        /* \"#utility.yul\":3565:3741   */\n      pop\n      jump\t// out\n        /* \"#utility.yul\":3747:4113   */\n    tag_80:\n        /* \"#utility.yul\":3889:3892   */\n      0x00\n        /* \"#utility.yul\":3910:3977   */\n      tag_124\n        /* \"#utility.yul\":3974:3976   */\n      0x1a\n        /* \"#utility.yul\":3969:3972   */\n      dup4\n        /* \"#utility.yul\":3910:3977   */\n      tag_78\n      jump\t// in\n    tag_124:\n        /* \"#utility.yul\":3903:3977   */\n      swap2\n      pop\n        /* \"#utility.yul\":3986:4079   */\n      tag_125\n        /* \"#utility.yul\":4075:4078   */\n      dup3\n        /* \"#utility.yul\":3986:4079   */\n      tag_79\n      jump\t// in\n    tag_125:\n        /* \"#utility.yul\":4104:4106   */\n      0x20\n        /* \"#utility.yul\":4099:4102   */\n      dup3\n        /* \"#utility.yul\":4095:4107   */\n      add\n        /* \"#utility.yul\":4088:4107   */\n      swap1\n      pop\n        /* \"#utility.yul\":3747:4113   */\n      swap2\n      swap1\n      pop\n      jump\t// out\n        /* \"#utility.yul\":4119:4538   */\n    tag_30:\n        /* \"#utility.yul\":4285:4289   */\n      0x00\n        /* \"#utility.yul\":4323:4325   */\n      0x20\n        /* \"#utility.yul\":4312:4321   */\n      dup3\n        /* \"#utility.yul\":4308:4326   */\n      add\n        /* \"#utility.yul\":4300:4326   */\n      swap1\n      pop\n        /* \"#utility.yul\":4372:4381   */\n      dup2\n        /* \"#utility.yul\":4366:4370   */\n      dup2\n        /* \"#utility.yul\":4362:4382   */\n      sub\n        /* \"#utility.yul\":4358:4359   */\n      0x00\n        /* \"#utility.yul\":4347:4356   */\n      dup4\n        /* \"#utility.yul\":4343:4360   */\n      add\n        /* \"#utility.yul\":4336:4383   */\n      mstore\n        /* \"#utility.yul\":4400:4531   */\n      tag_127\n        /* \"#utility.yul\":4526:4530   */\n      dup2\n        /* \"#utility.yul\":4400:4531   */\n      tag_80\n      jump\t// in\n    tag_127:\n        /* \"#utility.yul\":4392:4531   */\n      swap1\n      pop\n        /* \"#utility.yul\":4119:4538   */\n      swap2\n      swap1\n      pop\n      jump\t// out\n        /* \"#utility.yul\":4544:4724   */\n    tag_81:\n        /* \"#utility.yul\":4592:4669   */\n      0x4e487b7100000000000000000000000000000000000000000000000000000000\n        /* \"#utility.yul\":4589:4590   */\n      0x00\n        /* \"#utility.yul\":4582:4670   */\n      mstore\n        /* \"#utility.yul\":4689:4693   */\n      0x11\n        /* \"#utility.yul\":4686:4687   */\n      0x04\n        /* \"#utility.yul\":4679:4694   */\n      mstore\n        /* \"#utility.yul\":4713:4717   */\n      0x24\n        /* \"#utility.yul\":4710:4711   */\n      0x00\n        /* \"#utility.yul\":4703:4718   */\n      revert\n        /* \"#utility.yul\":4730:4921   */\n    tag_34:\n        /* \"#utility.yul\":4770:4773   */\n      0x00\n        /* \"#utility.yul\":4789:4809   */\n      tag_130\n        /* \"#utility.yul\":4807:4808   */\n      dup3\n        /* \"#utility.yul\":4789:4809   */\n      tag_67\n      jump\t// in\n    tag_130:\n        /* \"#utility.yul\":4784:4809   */\n      swap2\n      pop\n        /* \"#utility.yul\":4823:4843   */\n      tag_131\n        /* \"#utility.yul\":4841:4842   */\n      dup4\n        /* \"#utility.yul\":4823:4843   */\n      tag_67\n      jump\t// in\n    tag_131:\n        /* \"#utility.yul\":4818:4843   */\n      swap3\n      pop\n        /* \"#utility.yul\":4866:4867   */\n      dup3\n        /* \"#utility.yul\":4863:4864   */\n      dup3\n        /* \"#utility.yul\":4859:4868   */\n      add\n        /* \"#utility.yul\":4852:4868   */\n      swap1\n      pop\n        /* \"#utility.yul\":4887:4890   */\n      dup1\n        /* \"#utility.yul\":4884:4885   */\n      dup3\n        /* \"#utility.yul\":4881:4891   */\n      gt\n        /* \"#utility.yul\":4878:4914   */\n      iszero\n      tag_132\n      jumpi\n        /* \"#utility.yul\":4894:4912   */\n      tag_133\n      tag_81\n      jump\t// in\n    tag_133:\n        /* \"#utility.yul\":4878:4914   */\n    tag_132:\n        /* \"#utility.yul\":4730:4921   */\n      swap3\n      swap2\n      pop\n      pop\n      jump\t// out\n        /* \"#utility.yul\":4927:5369   */\n    tag_37:\n        /* \"#utility.yul\":5076:5080   */\n      0x00\n        /* \"#utility.yul\":5114:5116   */\n      0x60\n        /* \"#utility.yul\":5103:5112   */\n      dup3\n        /* \"#utility.yul\":5099:5117   */\n      add\n        /* \"#utility.yul\":5091:5117   */\n      swap1\n      pop\n        /* \"#utility.yul\":5127:5198   */\n      tag_135\n        /* \"#utility.yul\":5195:5196   */\n      0x00\n        /* \"#utility.yul\":5184:5193   */\n      dup4\n        /* \"#utility.yul\":5180:5197   */\n      add\n        /* \"#utility.yul\":5171:5177   */\n      dup7\n        /* \"#utility.yul\":5127:5198   */\n      tag_77\n      jump\t// in\n    tag_135:\n        /* \"#utility.yul\":5208:5280   */\n      tag_136\n        /* \"#utility.yul\":5276:5278   */\n      0x20\n        /* \"#utility.yul\":5265:5274   */\n      dup4\n        /* \"#utility.yul\":5261:5279   */\n      add\n        /* \"#utility.yul\":5252:5258   */\n      dup6\n        /* \"#utility.yul\":5208:5280   */\n      tag_77\n      jump\t// in\n    tag_136:\n        /* \"#utility.yul\":5290:5362   */\n      tag_137\n        /* \"#utility.yul\":5358:5360   */\n      0x40\n        /* \"#utility.yul\":5347:5356   */\n      dup4\n        /* \"#utility.yul\":5343:5361   */\n      add\n        /* \"#utility.yul\":5334:5340   */\n      dup5\n        /* \"#utility.yul\":5290:5362   */\n      tag_77\n      jump\t// in\n    tag_137:\n        /* \"#utility.yul\":4927:5369   */\n      swap5\n      swap4\n      pop\n      pop\n      pop\n      pop\n      jump\t// out\n        /* \"#utility.yul\":5375:5540   */\n    tag_82:\n        /* \"#utility.yul\":5515:5532   */\n      0x537461636b20756e646572666c6f770000000000000000000000000000000000\n        /* \"#utility.yul\":5511:5512   */\n      0x00\n        /* \"#utility.yul\":5503:5509   */\n      dup3\n        /* \"#utility.yul\":5499:5513   */\n      add\n        /* \"#utility.yul\":5492:5533   */\n      mstore\n        /* \"#utility.yul\":5375:5540   */\n      pop\n      jump\t// out\n        /* \"#utility.yul\":5546:5912   */\n    tag_83:\n        /* \"#utility.yul\":5688:5691   */\n      0x00\n        /* \"#utility.yul\":5709:5776   */\n      tag_140\n        /* \"#utility.yul\":5773:5775   */\n      0x0f\n        /* \"#utility.yul\":5768:5771   */\n      dup4\n        /* \"#utility.yul\":5709:5776   */\n      tag_78\n      jump\t// in\n    tag_140:\n        /* \"#utility.yul\":5702:5776   */\n      swap2\n      pop\n        /* \"#utility.yul\":5785:5878   */\n      tag_141\n        /* \"#utility.yul\":5874:5877   */\n      dup3\n        /* \"#utility.yul\":5785:5878   */\n      tag_82\n      jump\t// in\n    tag_141:\n        /* \"#utility.yul\":5903:5905   */\n      0x20\n        /* \"#utility.yul\":5898:5901   */\n      dup3\n        /* \"#utility.yul\":5894:5906   */\n      add\n        /* \"#utility.yul\":5887:5906   */\n      swap1\n      pop\n        /* \"#utility.yul\":5546:5912   */\n      swap2\n      swap1\n      pop\n      jump\t// out\n        /* \"#utility.yul\":5918:6337   */\n    tag_44:\n        /* \"#utility.yul\":6084:6088   */\n      0x00\n        /* \"#utility.yul\":6122:6124   */\n      0x20\n        /* \"#utility.yul\":6111:6120   */\n      dup3\n        /* \"#utility.yul\":6107:6125   */\n      add\n        /* \"#utility.yul\":6099:6125   */\n      swap1\n      pop\n        /* \"#utility.yul\":6171:6180   */\n      dup2\n        /* \"#utility.yul\":6165:6169   */\n      dup2\n        /* \"#utility.yul\":6161:6181   */\n      sub\n        /* \"#utility.yul\":6157:6158   */\n      0x00\n        /* \"#utility.yul\":6146:6155   */\n      dup4\n        /* \"#utility.yul\":6142:6159   */\n      add\n        /* \"#utility.yul\":6135:6182   */\n      mstore\n        /* \"#utility.yul\":6199:6330   */\n      tag_143\n        /* \"#utility.yul\":6325:6329   */\n      dup2\n        /* \"#utility.yul\":6199:6330   */\n      tag_83\n      jump\t// in\n    tag_143:\n        /* \"#utility.yul\":6191:6330   */\n      swap1\n      pop\n        /* \"#utility.yul\":5918:6337   */\n      swap2\n      swap1\n      pop\n      jump\t// out\n        /* \"#utility.yul\":6343:6537   */\n    tag_46:\n        /* \"#utility.yul\":6383:6387   */\n      0x00\n        /* \"#utility.yul\":6403:6423   */\n      tag_145\n        /* \"#utility.yul\":6421:6422   */\n      dup3\n        /* \"#utility.yul\":6403:6423   */\n      tag_67\n      jump\t// in\n    tag_145:\n        /* \"#utility.yul\":6398:6423   */\n      swap2\n      pop\n        /* \"#utility.yul\":6437:6457   */\n      tag_146\n        /* \"#utility.yul\":6455:6456   */\n      dup4\n        /* \"#utility.yul\":6437:6457   */\n      tag_67\n      jump\t// in\n    tag_146:\n        /* \"#utility.yul\":6432:6457   */\n      swap3\n      pop\n        /* \"#utility.yul\":6481:6482   */\n      dup3\n        /* \"#utility.yul\":6478:6479   */\n      dup3\n        /* \"#utility.yul\":6474:6483   */\n      sub\n        /* \"#utility.yul\":6466:6483   */\n      swap1\n      pop\n        /* \"#utility.yul\":6505:6506   */\n      dup2\n        /* \"#utility.yul\":6499:6503   */\n      dup2\n        /* \"#utility.yul\":6496:6507   */\n      gt\n        /* \"#utility.yul\":6493:6530   */\n      iszero\n      tag_147\n      jumpi\n        /* \"#utility.yul\":6510:6528   */\n      tag_148\n      tag_81\n      jump\t// in\n    tag_148:\n        /* \"#utility.yul\":6493:6530   */\n    tag_147:\n        /* \"#utility.yul\":6343:6537   */\n      swap3\n      swap2\n      pop\n      pop\n      jump\t// out\n        /* \"#utility.yul\":6543:6723   */\n    tag_49:\n        /* \"#utility.yul\":6591:6668   */\n      0x4e487b7100000000000000000000000000000000000000000000000000000000\n        /* \"#utility.yul\":6588:6589   */\n      0x00\n        /* \"#utility.yul\":6581:6669   */\n      mstore\n        /* \"#utility.yul\":6688:6692   */\n      0x32\n        /* \"#utility.yul\":6685:6686   */\n      0x04\n        /* \"#utility.yul\":6678:6693   */\n      mstore\n        /* \"#utility.yul\":6712:6716   */\n      0x24\n        /* \"#utility.yul\":6709:6710   */\n      0x00\n        /* \"#utility.yul\":6702:6717   */\n      revert\n        /* \"#utility.yul\":6729:6909   */\n    tag_53:\n        /* \"#utility.yul\":6777:6854   */\n      0x4e487b7100000000000000000000000000000000000000000000000000000000\n        /* \"#utility.yul\":6774:6775   */\n      0x00\n        /* \"#utility.yul\":6767:6855   */\n      mstore\n        /* \"#utility.yul\":6874:6878   */\n      0x31\n        /* \"#utility.yul\":6871:6872   */\n      0x04\n        /* \"#utility.yul\":6864:6879   */\n      mstore\n        /* \"#utility.yul\":6898:6902   */\n      0x24\n        /* \"#utility.yul\":6895:6896   */\n      0x00\n        /* \"#utility.yul\":6888:6903   */\n      revert\n\n    auxdata: 0xa26469706673582212203090cbacf839efa574108af690bfe0ed9bf457f9142ea82c3fddefe79edbcfc764736f6c634300081a0033\n}\n",
				"bytecode": {
					"linkReferences": {},
					"object": "6080604052348015600e575f80fd5b506107568061001c5f395ff3fe608060405234801561000f575f80fd5b5060043610610055575f3560e01c80634b2a5002146100595780634f2be91f14610077578063959ac48414610081578063a4ece52c1461009d578063c54124be146100bb575b5f80fd5b6100616100c5565b60405161006e919061047d565b60405180910390f35b61007f61011a565b005b61009b600480360381019061009691906104cb565b6101d0565b005b6100a561022f565b6040516100b29190610505565b60405180910390f35b6100c3610307565b005b60605f80548060200260200160405190810160405280929190818152602001828054801561011057602002820191905f5260205f20905b8154815260200190600101908083116100fc575b5050505050905090565b60025f805490501015610162576040517f08c379a000000000000000000000000000000000000000000000000000000000815260040161015990610578565b60405180910390fd5b5f61016b61022f565b90505f61017661022f565b90505f818361018591906105c3565b9050610190816101d0565b7fdacd6915a3133d6443fa6889ce5516423d4c55eb78865bff55807a282e1a00408383836040516101c3939291906105f6565b60405180910390a1505050565b5f81908060018154018082558091505060019003905f5260205f20015f90919091909150557f596330851ac25e6ec8c92072a44a9e57b03eb6a0a2388a73770a0ac191524f98816040516102249190610505565b60405180910390a150565b5f805f8054905011610276576040517f08c379a000000000000000000000000000000000000000000000000000000000815260040161026d90610675565b60405180910390fd5b5f8060015f805490506102899190610693565b8154811061029a576102996106c6565b5b905f5260205f20015490505f8054806102b6576102b56106f3565b5b600190038181905f5260205f20015f905590557fb426e6a2f9f462930f4e0b75db70f45d24ce86b097036da40ac1aca07848cd1e816040516102f89190610505565b60405180910390a18091505090565b60025f80549050101561034f576040517f08c379a000000000000000000000000000000000000000000000000000000000815260040161034690610578565b60405180910390fd5b5f61035861022f565b90505f61036361022f565b90505f81836103729190610693565b905061037d816101d0565b7f1e13faa901d9fb24596bfc51e20e20abb535f0ad7541d284e9e4dc6e893771d78383836040516103b0939291906105f6565b60405180910390a1505050565b5f81519050919050565b5f82825260208201905092915050565b5f819050602082019050919050565b5f819050919050565b6103f8816103e6565b82525050565b5f61040983836103ef565b60208301905092915050565b5f602082019050919050565b5f61042b826103bd565b61043581856103c7565b9350610440836103d7565b805f5b8381101561047057815161045788826103fe565b975061046283610415565b925050600181019050610443565b5085935050505092915050565b5f6020820190508181035f8301526104958184610421565b905092915050565b5f80fd5b6104aa816103e6565b81146104b4575f80fd5b50565b5f813590506104c5816104a1565b92915050565b5f602082840312156104e0576104df61049d565b5b5f6104ed848285016104b7565b91505092915050565b6104ff816103e6565b82525050565b5f6020820190506105185f8301846104f6565b92915050565b5f82825260208201905092915050565b7f4e6f7420656e6f7567682076616c756573206f6e20737461636b0000000000005f82015250565b5f610562601a8361051e565b915061056d8261052e565b602082019050919050565b5f6020820190508181035f83015261058f81610556565b9050919050565b7f4e487b71000000000000000000000000000000000000000000000000000000005f52601160045260245ffd5b5f6105cd826103e6565b91506105d8836103e6565b92508282019050808211156105f0576105ef610596565b5b92915050565b5f6060820190506106095f8301866104f6565b61061660208301856104f6565b61062360408301846104f6565b949350505050565b7f537461636b20756e646572666c6f7700000000000000000000000000000000005f82015250565b5f61065f600f8361051e565b915061066a8261062b565b602082019050919050565b5f6020820190508181035f83015261068c81610653565b9050919050565b5f61069d826103e6565b91506106a8836103e6565b92508282039050818111156106c0576106bf610596565b5b92915050565b7f4e487b71000000000000000000000000000000000000000000000000000000005f52603260045260245ffd5b7f4e487b71000000000000000000000000000000000000000000000000000000005f52603160045260245ffdfea26469706673582212203090cbacf839efa574108af690bfe0ed9bf457f9142ea82c3fddefe79edbcfc764736f6c634300081a0033",
					"opcodes": "PUSH1 0x80 PUSH1 0x40 MSTORE CALLVALUE DUP1 ISZERO PUSH1 0xE JUMPI PUSH0 DUP1 REVERT JUMPDEST POP PUSH2 0x756 DUP1 PUSH2 0x1C PUSH0 CODECOPY PUSH0 RETURN INVALID PUSH1 0x80 PUSH1 0x40 MSTORE CALLVALUE DUP1 ISZERO PUSH2 0xF JUMPI PUSH0 DUP1 REVERT JUMPDEST POP PUSH1 0x4 CALLDATASIZE LT PUSH2 0x55 JUMPI PUSH0 CALLDATALOAD PUSH1 0xE0 SHR DUP1 PUSH4 0x4B2A5002 EQ PUSH2 0x59 JUMPI DUP1 PUSH4 0x4F2BE91F EQ PUSH2 0x77 JUMPI DUP1 PUSH4 0x959AC484 EQ PUSH2 0x81 JUMPI DUP1 PUSH4 0xA4ECE52C EQ PUSH2 0x9D JUMPI DUP1 PUSH4 0xC54124BE EQ PUSH2 0xBB JUMPI JUMPDEST PUSH0 DUP1 REVERT JUMPDEST PUSH2 0x61 PUSH2 0xC5 JUMP JUMPDEST PUSH1 0x40 MLOAD PUSH2 0x6E SWAP2 SWAP1 PUSH2 0x47D JUMP JUMPDEST PUSH1 0x40 MLOAD DUP1 SWAP2 SUB SWAP1 RETURN JUMPDEST PUSH2 0x7F PUSH2 0x11A JUMP JUMPDEST STOP JUMPDEST PUSH2 0x9B PUSH1 0x4 DUP1 CALLDATASIZE SUB DUP2 ADD SWAP1 PUSH2 0x96 SWAP2 SWAP1 PUSH2 0x4CB JUMP JUMPDEST PUSH2 0x1D0 JUMP JUMPDEST STOP JUMPDEST PUSH2 0xA5 PUSH2 0x22F JUMP JUMPDEST PUSH1 0x40 MLOAD PUSH2 0xB2 SWAP2 SWAP1 PUSH2 0x505 JUMP JUMPDEST PUSH1 0x40 MLOAD DUP1 SWAP2 SUB SWAP1 RETURN JUMPDEST PUSH2 0xC3 PUSH2 0x307 JUMP JUMPDEST STOP JUMPDEST PUSH1 0x60 PUSH0 DUP1 SLOAD DUP1 PUSH1 0x20 MUL PUSH1 0x20 ADD PUSH1 0x40 MLOAD SWAP1 DUP2 ADD PUSH1 0x40 MSTORE DUP1 SWAP3 SWAP2 SWAP1 DUP2 DUP2 MSTORE PUSH1 0x20 ADD DUP3 DUP1 SLOAD DUP1 ISZERO PUSH2 0x110 JUMPI PUSH1 0x20 MUL DUP3 ADD SWAP2 SWAP1 PUSH0 MSTORE PUSH1 0x20 PUSH0 KECCAK256 SWAP1 JUMPDEST DUP2 SLOAD DUP2 MSTORE PUSH1 0x20 ADD SWAP1 PUSH1 0x1 ADD SWAP1 DUP1 DUP4 GT PUSH2 0xFC JUMPI JUMPDEST POP POP POP POP POP SWAP1 POP SWAP1 JUMP JUMPDEST PUSH1 0x2 PUSH0 DUP1 SLOAD SWAP1 POP LT ISZERO PUSH2 0x162 JUMPI PUSH1 0x40 MLOAD PUSH32 0x8C379A000000000000000000000000000000000000000000000000000000000 DUP2 MSTORE PUSH1 0x4 ADD PUSH2 0x159 SWAP1 PUSH2 0x578 JUMP JUMPDEST PUSH1 0x40 MLOAD DUP1 SWAP2 SUB SWAP1 REVERT JUMPDEST PUSH0 PUSH2 0x16B PUSH2 0x22F JUMP JUMPDEST SWAP1 POP PUSH0 PUSH2 0x176 PUSH2 0x22F JUMP JUMPDEST SWAP1 POP PUSH0 DUP2 DUP4 PUSH2 0x185 SWAP2 SWAP1 PUSH2 0x5C3 JUMP JUMPDEST SWAP1 POP PUSH2 0x190 DUP2 PUSH2 0x1D0 JUMP JUMPDEST PUSH32 0xDACD6915A3133D6443FA6889CE5516423D4C55EB78865BFF55807A282E1A0040 DUP4 DUP4 DUP4 PUSH1 0x40 MLOAD PUSH2 0x1C3 SWAP4 SWAP3 SWAP2 SWAP1 PUSH2 0x5F6 JUMP JUMPDEST PUSH1 0x40 MLOAD DUP1 SWAP2 SUB SWAP1 LOG1 POP POP POP JUMP JUMPDEST PUSH0 DUP2 SWAP1 DUP1 PUSH1 0x1 DUP2 SLOAD ADD DUP1 DUP3 SSTORE DUP1 SWAP2 POP POP PUSH1 0x1 SWAP1 SUB SWAP1 PUSH0 MSTORE PUSH1 0x20 PUSH0 KECCAK256 ADD PUSH0 SWAP1 SWAP2 SWAP1 SWAP2 SWAP1 SWAP2 POP SSTORE PUSH32 0x596330851AC25E6EC8C92072A44A9E57B03EB6A0A2388A73770A0AC191524F98 DUP2 PUSH1 0x40 MLOAD PUSH2 0x224 SWAP2 SWAP1 PUSH2 0x505 JUMP JUMPDEST PUSH1 0x40 MLOAD DUP1 SWAP2 SUB SWAP1 LOG1 POP JUMP JUMPDEST PUSH0 DUP1 PUSH0 DUP1 SLOAD SWAP1 POP GT PUSH2 0x276 JUMPI PUSH1 0x40 MLOAD PUSH32 0x8C379A000000000000000000000000000000000000000000000000000000000 DUP2 MSTORE PUSH1 0x4 ADD PUSH2 0x26D SWAP1 PUSH2 0x675 JUMP JUMPDEST PUSH1 0x40 MLOAD DUP1 SWAP2 SUB SWAP1 REVERT JUMPDEST PUSH0 DUP1 PUSH1 0x1 PUSH0 DUP1 SLOAD SWAP1 POP PUSH2 0x289 SWAP2 SWAP1 PUSH2 0x693 JUMP JUMPDEST DUP2 SLOAD DUP2 LT PUSH2 0x29A JUMPI PUSH2 0x299 PUSH2 0x6C6 JUMP JUMPDEST JUMPDEST SWAP1 PUSH0 MSTORE PUSH1 0x20 PUSH0 KECCAK256 ADD SLOAD SWAP1 POP PUSH0 DUP1 SLOAD DUP1 PUSH2 0x2B6 JUMPI PUSH2 0x2B5 PUSH2 0x6F3 JUMP JUMPDEST JUMPDEST PUSH1 0x1 SWAP1 SUB DUP2 DUP2 SWAP1 PUSH0 MSTORE PUSH1 0x20 PUSH0 KECCAK256 ADD PUSH0 SWAP1 SSTORE SWAP1 SSTORE PUSH32 0xB426E6A2F9F462930F4E0B75DB70F45D24CE86B097036DA40AC1ACA07848CD1E DUP2 PUSH1 0x40 MLOAD PUSH2 0x2F8 SWAP2 SWAP1 PUSH2 0x505 JUMP JUMPDEST PUSH1 0x40 MLOAD DUP1 SWAP2 SUB SWAP1 LOG1 DUP1 SWAP2 POP POP SWAP1 JUMP JUMPDEST PUSH1 0x2 PUSH0 DUP1 SLOAD SWAP1 POP LT ISZERO PUSH2 0x34F JUMPI PUSH1 0x40 MLOAD PUSH32 0x8C379A000000000000000000000000000000000000000000000000000000000 DUP2 MSTORE PUSH1 0x4 ADD PUSH2 0x346 SWAP1 PUSH2 0x578 JUMP JUMPDEST PUSH1 0x40 MLOAD DUP1 SWAP2 SUB SWAP1 REVERT JUMPDEST PUSH0 PUSH2 0x358 PUSH2 0x22F JUMP JUMPDEST SWAP1 POP PUSH0 PUSH2 0x363 PUSH2 0x22F JUMP JUMPDEST SWAP1 POP PUSH0 DUP2 DUP4 PUSH2 0x372 SWAP2 SWAP1 PUSH2 0x693 JUMP JUMPDEST SWAP1 POP PUSH2 0x37D DUP2 PUSH2 0x1D0 JUMP JUMPDEST PUSH32 0x1E13FAA901D9FB24596BFC51E20E20ABB535F0AD7541D284E9E4DC6E893771D7 DUP4 DUP4 DUP4 PUSH1 0x40 MLOAD PUSH2 0x3B0 SWAP4 SWAP3 SWAP2 SWAP1 PUSH2 0x5F6 JUMP JUMPDEST PUSH1 0x40 MLOAD DUP1 SWAP2 SUB SWAP1 LOG1 POP POP POP JUMP JUMPDEST PUSH0 DUP2 MLOAD SWAP1 POP SWAP2 SWAP1 POP JUMP JUMPDEST PUSH0 DUP3 DUP3 MSTORE PUSH1 0x20 DUP3 ADD SWAP1 POP SWAP3 SWAP2 POP POP JUMP JUMPDEST PUSH0 DUP2 SWAP1 POP PUSH1 0x20 DUP3 ADD SWAP1 POP SWAP2 SWAP1 POP JUMP JUMPDEST PUSH0 DUP2 SWAP1 POP SWAP2 SWAP1 POP JUMP JUMPDEST PUSH2 0x3F8 DUP2 PUSH2 0x3E6 JUMP JUMPDEST DUP3 MSTORE POP POP JUMP JUMPDEST PUSH0 PUSH2 0x409 DUP4 DUP4 PUSH2 0x3EF JUMP JUMPDEST PUSH1 0x20 DUP4 ADD SWAP1 POP SWAP3 SWAP2 POP POP JUMP JUMPDEST PUSH0 PUSH1 0x20 DUP3 ADD SWAP1 POP SWAP2 SWAP1 POP JUMP JUMPDEST PUSH0 PUSH2 0x42B DUP3 PUSH2 0x3BD JUMP JUMPDEST PUSH2 0x435 DUP2 DUP6 PUSH2 0x3C7 JUMP JUMPDEST SWAP4 POP PUSH2 0x440 DUP4 PUSH2 0x3D7 JUMP JUMPDEST DUP1 PUSH0 JUMPDEST DUP4 DUP2 LT ISZERO PUSH2 0x470 JUMPI DUP2 MLOAD PUSH2 0x457 DUP9 DUP3 PUSH2 0x3FE JUMP JUMPDEST SWAP8 POP PUSH2 0x462 DUP4 PUSH2 0x415 JUMP JUMPDEST SWAP3 POP POP PUSH1 0x1 DUP2 ADD SWAP1 POP PUSH2 0x443 JUMP JUMPDEST POP DUP6 SWAP4 POP POP POP POP SWAP3 SWAP2 POP POP JUMP JUMPDEST PUSH0 PUSH1 0x20 DUP3 ADD SWAP1 POP DUP2 DUP2 SUB PUSH0 DUP4 ADD MSTORE PUSH2 0x495 DUP2 DUP5 PUSH2 0x421 JUMP JUMPDEST SWAP1 POP SWAP3 SWAP2 POP POP JUMP JUMPDEST PUSH0 DUP1 REVERT JUMPDEST PUSH2 0x4AA DUP2 PUSH2 0x3E6 JUMP JUMPDEST DUP2 EQ PUSH2 0x4B4 JUMPI PUSH0 DUP1 REVERT JUMPDEST POP JUMP JUMPDEST PUSH0 DUP2 CALLDATALOAD SWAP1 POP PUSH2 0x4C5 DUP2 PUSH2 0x4A1 JUMP JUMPDEST SWAP3 SWAP2 POP POP JUMP JUMPDEST PUSH0 PUSH1 0x20 DUP3 DUP5 SUB SLT ISZERO PUSH2 0x4E0 JUMPI PUSH2 0x4DF PUSH2 0x49D JUMP JUMPDEST JUMPDEST PUSH0 PUSH2 0x4ED DUP5 DUP3 DUP6 ADD PUSH2 0x4B7 JUMP JUMPDEST SWAP2 POP POP SWAP3 SWAP2 POP POP JUMP JUMPDEST PUSH2 0x4FF DUP2 PUSH2 0x3E6 JUMP JUMPDEST DUP3 MSTORE POP POP JUMP JUMPDEST PUSH0 PUSH1 0x20 DUP3 ADD SWAP1 POP PUSH2 0x518 PUSH0 DUP4 ADD DUP5 PUSH2 0x4F6 JUMP JUMPDEST SWAP3 SWAP2 POP POP JUMP JUMPDEST PUSH0 DUP3 DUP3 MSTORE PUSH1 0x20 DUP3 ADD SWAP1 POP SWAP3 SWAP2 POP POP JUMP JUMPDEST PUSH32 0x4E6F7420656E6F7567682076616C756573206F6E20737461636B000000000000 PUSH0 DUP3 ADD MSTORE POP JUMP JUMPDEST PUSH0 PUSH2 0x562 PUSH1 0x1A DUP4 PUSH2 0x51E JUMP JUMPDEST SWAP2 POP PUSH2 0x56D DUP3 PUSH2 0x52E JUMP JUMPDEST PUSH1 0x20 DUP3 ADD SWAP1 POP SWAP2 SWAP1 POP JUMP JUMPDEST PUSH0 PUSH1 0x20 DUP3 ADD SWAP1 POP DUP2 DUP2 SUB PUSH0 DUP4 ADD MSTORE PUSH2 0x58F DUP2 PUSH2 0x556 JUMP JUMPDEST SWAP1 POP SWAP2 SWAP1 POP JUMP JUMPDEST PUSH32 0x4E487B7100000000000000000000000000000000000000000000000000000000 PUSH0 MSTORE PUSH1 0x11 PUSH1 0x4 MSTORE PUSH1 0x24 PUSH0 REVERT JUMPDEST PUSH0 PUSH2 0x5CD DUP3 PUSH2 0x3E6 JUMP JUMPDEST SWAP2 POP PUSH2 0x5D8 DUP4 PUSH2 0x3E6 JUMP JUMPDEST SWAP3 POP DUP3 DUP3 ADD SWAP1 POP DUP1 DUP3 GT ISZERO PUSH2 0x5F0 JUMPI PUSH2 0x5EF PUSH2 0x596 JUMP JUMPDEST JUMPDEST SWAP3 SWAP2 POP POP JUMP JUMPDEST PUSH0 PUSH1 0x60 DUP3 ADD SWAP1 POP PUSH2 0x609 PUSH0 DUP4 ADD DUP7 PUSH2 0x4F6 JUMP JUMPDEST PUSH2 0x616 PUSH1 0x20 DUP4 ADD DUP6 PUSH2 0x4F6 JUMP JUMPDEST PUSH2 0x623 PUSH1 0x40 DUP4 ADD DUP5 PUSH2 0x4F6 JUMP JUMPDEST SWAP5 SWAP4 POP POP POP POP JUMP JUMPDEST PUSH32 0x537461636B20756E646572666C6F770000000000000000000000000000000000 PUSH0 DUP3 ADD MSTORE POP JUMP JUMPDEST PUSH0 PUSH2 0x65F PUSH1 0xF DUP4 PUSH2 0x51E JUMP JUMPDEST SWAP2 POP PUSH2 0x66A DUP3 PUSH2 0x62B JUMP JUMPDEST PUSH1 0x20 DUP3 ADD SWAP1 POP SWAP2 SWAP1 POP JUMP JUMPDEST PUSH0 PUSH1 0x20 DUP3 ADD SWAP1 POP DUP2 DUP2 SUB PUSH0 DUP4 ADD MSTORE PUSH2 0x68C DUP2 PUSH2 0x653 JUMP JUMPDEST SWAP1 POP SWAP2 SWAP1 POP JUMP JUMPDEST PUSH0 PUSH2 0x69D DUP3 PUSH2 0x3E6 JUMP JUMPDEST SWAP2 POP PUSH2 0x6A8 DUP4 PUSH2 0x3E6 JUMP JUMPDEST SWAP3 POP DUP3 DUP3 SUB SWAP1 POP DUP2 DUP2 GT ISZERO PUSH2 0x6C0 JUMPI PUSH2 0x6BF PUSH2 0x596 JUMP JUMPDEST JUMPDEST SWAP3 SWAP2 POP POP JUMP JUMPDEST PUSH32 0x4E487B7100000000000000000000000000000000000000000000000000000000 PUSH0 MSTORE PUSH1 0x32 PUSH1 0x4 MSTORE PUSH1 0x24 PUSH0 REVERT JUMPDEST PUSH32 0x4E487B7100000000000000000000000000000000000000000000000000000000 PUSH0 MSTORE PUSH1 0x31 PUSH1 0x4 MSTORE PUSH1 0x24 PUSH0 REVERT INVALID LOG2 PUSH5 0x6970667358 0x22 SLT KECCAK256 ADDRESS SWAP1 0xCB 0xAC 0xF8 CODECOPY 0xEF 0xA5 PUSH21 0x108AF690BFE0ED9BF457F9142EA82C3FDDEFE79EDB 0xCF 0xC7 PUSH5 0x736F6C6343 STOP ADDMOD BYTE STOP CALLER "
				},
				"gasEstimates": {
					"creation": {
						"codeDepositCost": "375600",
						"executionCost": "409",
						"totalCost": "376009"
					},
					"external": {
						"add()": "infinite",
						"getStack()": "infinite",
						"pop()": "infinite",
						"push(uint256)": "infinite",
						"sub()": "infinite"
					}
				},
				"methodIdentifiers": {
					"add()": "4f2be91f",
					"getStack()": "4b2a5002",
					"pop()": "a4ece52c",
					"push(uint256)": "959ac484",
					"sub()": "c54124be"
				}
			},
			"storageLayout": {
				"storage": [
					{
						"astId": 4,
						"contract": "contracts/StackOperations.sol:StackOperations",
						"label": "stack",
						"offset": 0,
						"slot": "0",
						"type": "t_array(t_uint256)dyn_storage"
					}
				],
				"types": {
					"t_array(t_uint256)dyn_storage": {
						"base": "t_uint256",
						"encoding": "dynamic_array",
						"label": "uint256[]",
						"numberOfBytes": "32"
					},
					"t_uint256": {
						"encoding": "inplace",
						"label": "uint256",
						"numberOfBytes": "32"
					}
				}
			},
			"userdoc": {
				"kind": "user",
				"methods": {},
				"version": 1
			}
		}
	}
}