{
	"data": {
		"bytecode": {
			"linkReferences": {},
			"object": "6080604052348015600e575f80fd5b506106418061001c5f395ff3fe608060405234801561000f575f80fd5b506004361061003f575f3560e01c80632fb2b86b146100435780636a01208e1461007357806377439015146100a3575b5f80fd5b61005d600480360381019061005891906101e1565b6100d3565b60405161006a919061022e565b60405180910390f35b61008d600480360381019061008891906103ec565b61012a565b60405161009a9190610455565b60405180910390f35b6100bd60048036038101906100b891906101e1565b610191565b6040516100ca9190610488565b60405180910390f35b5f808203610116576040517f08c379a000000000000000000000000000000000000000000000000000000000815260040161010d906104fb565b60405180910390fd5b81836101229190610546565b905092915050565b5f8251821061016e576040517f08c379a0000000000000000000000000000000000000000000000000000000008152600401610165906105c0565b60405180910390fd5b828281518110610181576101806105de565b5b6020026020010151905092915050565b5f818310905092915050565b5f604051905090565b5f80fd5b5f80fd5b5f819050919050565b6101c0816101ae565b81146101ca575f80fd5b50565b5f813590506101db816101b7565b92915050565b5f80604083850312156101f7576101f66101a6565b5b5f610204858286016101cd565b9250506020610215858286016101cd565b9150509250929050565b610228816101ae565b82525050565b5f6020820190506102415f83018461021f565b92915050565b5f80fd5b5f601f19601f8301169050919050565b7f4e487b71000000000000000000000000000000000000000000000000000000005f52604160045260245ffd5b6102918261024b565b810181811067ffffffffffffffff821117156102b0576102af61025b565b5b80604052505050565b5f6102c261019d565b90506102ce8282610288565b919050565b5f67ffffffffffffffff8211156102ed576102ec61025b565b5b602082029050602081019050919050565b5f80fd5b5f7fff0000000000000000000000000000000000000000000000000000000000000082169050919050565b61033681610302565b8114610340575f80fd5b50565b5f813590506103518161032d565b92915050565b5f610369610364846102d3565b6102b9565b9050808382526020820190506020840283018581111561038c5761038b6102fe565b5b835b818110156103b557806103a18882610343565b84526020840193505060208101905061038e565b5050509392505050565b5f82601f8301126103d3576103d2610247565b5b81356103e3848260208601610357565b91505092915050565b5f8060408385031215610402576104016101a6565b5b5f83013567ffffffffffffffff81111561041f5761041e6101aa565b5b61042b858286016103bf565b925050602061043c858286016101cd565b9150509250929050565b61044f81610302565b82525050565b5f6020820190506104685f830184610446565b92915050565b5f8115159050919050565b6104828161046e565b82525050565b5f60208201905061049b5f830184610479565b92915050565b5f82825260208201905092915050565b7f446976696465722063616e6e6f74206265207a65726f000000000000000000005f82015250565b5f6104e56016836104a1565b91506104f0826104b1565b602082019050919050565b5f6020820190508181035f830152610512816104d9565b9050919050565b7f4e487b71000000000000000000000000000000000000000000000000000000005f52601260045260245ffd5b5f610550826101ae565b915061055b836101ae565b92508261056b5761056a610519565b5b828206905092915050565b7f696e646578206f7574206f6620626f756e6473000000000000000000000000005f82015250565b5f6105aa6013836104a1565b91506105b582610576565b602082019050919050565b5f6020820190508181035f8301526105d78161059e565b9050919050565b7f4e487b71000000000000000000000000000000000000000000000000000000005f52603260045260245ffdfea26469706673582212205671cf198cfb3702d2546465c6d4f12d25ebc491a78aca9d39427a8f0087040564736f6c634300081a0033",
			"opcodes": "PUSH1 0x80 PUSH1 0x40 MSTORE CALLVALUE DUP1 ISZERO PUSH1 0xE JUMPI PUSH0 DUP1 REVERT JUMPDEST POP PUSH2 0x641 DUP1 PUSH2 0x1C PUSH0 CODECOPY PUSH0 RETURN INVALID PUSH1 0x80 PUSH1 0x40 MSTORE CALLVALUE DUP1 ISZERO PUSH2 0xF JUMPI PUSH0 DUP1 REVERT JUMPDEST POP PUSH1 0x4 CALLDATASIZE LT PUSH2 0x3F JUMPI PUSH0 CALLDATALOAD PUSH1 0xE0 SHR DUP1 PUSH4 0x2FB2B86B EQ PUSH2 0x43 JUMPI DUP1 PUSH4 0x6A01208E EQ PUSH2 0x73 JUMPI DUP1 PUSH4 0x77439015 EQ PUSH2 0xA3 JUMPI JUMPDEST PUSH0 DUP1 REVERT JUMPDEST PUSH2 0x5D PUSH1 0x4 DUP1 CALLDATASIZE SUB DUP2 ADD SWAP1 PUSH2 0x58 SWAP2 SWAP1 PUSH2 0x1E1 JUMP JUMPDEST PUSH2 0xD3 JUMP JUMPDEST PUSH1 0x40 MLOAD PUSH2 0x6A SWAP2 SWAP1 PUSH2 0x22E JUMP JUMPDEST PUSH1 0x40 MLOAD DUP1 SWAP2 SUB SWAP1 RETURN JUMPDEST PUSH2 0x8D PUSH1 0x4 DUP1 CALLDATASIZE SUB DUP2 ADD SWAP1 PUSH2 0x88 SWAP2 SWAP1 PUSH2 0x3EC JUMP JUMPDEST PUSH2 0x12A JUMP JUMPDEST PUSH1 0x40 MLOAD PUSH2 0x9A SWAP2 SWAP1 PUSH2 0x455 JUMP JUMPDEST PUSH1 0x40 MLOAD DUP1 SWAP2 SUB SWAP1 RETURN JUMPDEST PUSH2 0xBD PUSH1 0x4 DUP1 CALLDATASIZE SUB DUP2 ADD SWAP1 PUSH2 0xB8 SWAP2 SWAP1 PUSH2 0x1E1 JUMP JUMPDEST PUSH2 0x191 JUMP JUMPDEST PUSH1 0x40 MLOAD PUSH2 0xCA SWAP2 SWAP1 PUSH2 0x488 JUMP JUMPDEST PUSH1 0x40 MLOAD DUP1 SWAP2 SUB SWAP1 RETURN JUMPDEST PUSH0 DUP1 DUP3 SUB PUSH2 0x116 JUMPI PUSH1 0x40 MLOAD PUSH32 0x8C379A000000000000000000000000000000000000000000000000000000000 DUP2 MSTORE PUSH1 0x4 ADD PUSH2 0x10D SWAP1 PUSH2 0x4FB JUMP JUMPDEST PUSH1 0x40 MLOAD DUP1 SWAP2 SUB SWAP1 REVERT JUMPDEST DUP2 DUP4 PUSH2 0x122 SWAP2 SWAP1 PUSH2 0x546 JUMP JUMPDEST SWAP1 POP SWAP3 SWAP2 POP POP JUMP JUMPDEST PUSH0 DUP3 MLOAD DUP3 LT PUSH2 0x16E JUMPI PUSH1 0x40 MLOAD PUSH32 0x8C379A000000000000000000000000000000000000000000000000000000000 DUP2 MSTORE PUSH1 0x4 ADD PUSH2 0x165 SWAP1 PUSH2 0x5C0 JUMP JUMPDEST PUSH1 0x40 MLOAD DUP1 SWAP2 SUB SWAP1 REVERT JUMPDEST DUP3 DUP3 DUP2 MLOAD DUP2 LT PUSH2 0x181 JUMPI PUSH2 0x180 PUSH2 0x5DE JUMP JUMPDEST JUMPDEST PUSH1 0x20 MUL PUSH1 0x20 ADD ADD MLOAD SWAP1 POP SWAP3 SWAP2 POP POP JUMP JUMPDEST PUSH0 DUP2 DUP4 LT SWAP1 POP SWAP3 SWAP2 POP POP JUMP JUMPDEST PUSH0 PUSH1 0x40 MLOAD SWAP1 POP SWAP1 JUMP JUMPDEST PUSH0 DUP1 REVERT JUMPDEST PUSH0 DUP1 REVERT JUMPDEST PUSH0 DUP2 SWAP1 POP SWAP2 SWAP1 POP JUMP JUMPDEST PUSH2 0x1C0 DUP2 PUSH2 0x1AE JUMP JUMPDEST DUP2 EQ PUSH2 0x1CA JUMPI PUSH0 DUP1 REVERT JUMPDEST POP JUMP JUMPDEST PUSH0 DUP2 CALLDATALOAD SWAP1 POP PUSH2 0x1DB DUP2 PUSH2 0x1B7 JUMP JUMPDEST SWAP3 SWAP2 POP POP JUMP JUMPDEST PUSH0 DUP1 PUSH1 0x40 DUP4 DUP6 SUB SLT ISZERO PUSH2 0x1F7 JUMPI PUSH2 0x1F6 PUSH2 0x1A6 JUMP JUMPDEST JUMPDEST PUSH0 PUSH2 0x204 DUP6 DUP3 DUP7 ADD PUSH2 0x1CD JUMP JUMPDEST SWAP3 POP POP PUSH1 0x20 PUSH2 0x215 DUP6 DUP3 DUP7 ADD PUSH2 0x1CD JUMP JUMPDEST SWAP2 POP POP SWAP3 POP SWAP3 SWAP1 POP JUMP JUMPDEST PUSH2 0x228 DUP2 PUSH2 0x1AE JUMP JUMPDEST DUP3 MSTORE POP POP JUMP JUMPDEST PUSH0 PUSH1 0x20 DUP3 ADD SWAP1 POP PUSH2 0x241 PUSH0 DUP4 ADD DUP5 PUSH2 0x21F JUMP JUMPDEST SWAP3 SWAP2 POP POP JUMP JUMPDEST PUSH0 DUP1 REVERT JUMPDEST PUSH0 PUSH1 0x1F NOT PUSH1 0x1F DUP4 ADD AND SWAP1 POP SWAP2 SWAP1 POP JUMP JUMPDEST PUSH32 0x4E487B7100000000000000000000000000000000000000000000000000000000 PUSH0 MSTORE PUSH1 0x41 PUSH1 0x4 MSTORE PUSH1 0x24 PUSH0 REVERT JUMPDEST PUSH2 0x291 DUP3 PUSH2 0x24B JUMP JUMPDEST DUP2 ADD DUP2 DUP2 LT PUSH8 0xFFFFFFFFFFFFFFFF DUP3 GT OR ISZERO PUSH2 0x2B0 JUMPI PUSH2 0x2AF PUSH2 0x25B JUMP JUMPDEST JUMPDEST DUP1 PUSH1 0x40 MSTORE POP POP POP JUMP JUMPDEST PUSH0 PUSH2 0x2C2 PUSH2 0x19D JUMP JUMPDEST SWAP1 POP PUSH2 0x2CE DUP3 DUP3 PUSH2 0x288 JUMP JUMPDEST SWAP2 SWAP1 POP JUMP JUMPDEST PUSH0 PUSH8 0xFFFFFFFFFFFFFFFF DUP3 GT ISZERO PUSH2 0x2ED JUMPI PUSH2 0x2EC PUSH2 0x25B JUMP JUMPDEST JUMPDEST PUSH1 0x20 DUP3 MUL SWAP1 POP PUSH1 0x20 DUP2 ADD SWAP1 POP SWAP2 SWAP1 POP JUMP JUMPDEST PUSH0 DUP1 REVERT JUMPDEST PUSH0 PUSH32 0xFF00000000000000000000000000000000000000000000000000000000000000 DUP3 AND SWAP1 POP SWAP2 SWAP1 POP JUMP JUMPDEST PUSH2 0x336 DUP2 PUSH2 0x302 JUMP JUMPDEST DUP2 EQ PUSH2 0x340 JUMPI PUSH0 DUP1 REVERT JUMPDEST POP JUMP JUMPDEST PUSH0 DUP2 CALLDATALOAD SWAP1 POP PUSH2 0x351 DUP2 PUSH2 0x32D JUMP JUMPDEST SWAP3 SWAP2 POP POP JUMP JUMPDEST PUSH0 PUSH2 0x369 PUSH2 0x364 DUP5 PUSH2 0x2D3 JUMP JUMPDEST PUSH2 0x2B9 JUMP JUMPDEST SWAP1 POP DUP1 DUP4 DUP3 MSTORE PUSH1 0x20 DUP3 ADD SWAP1 POP PUSH1 0x20 DUP5 MUL DUP4 ADD DUP6 DUP2 GT ISZERO PUSH2 0x38C JUMPI PUSH2 0x38B PUSH2 0x2FE JUMP JUMPDEST JUMPDEST DUP4 JUMPDEST DUP2 DUP2 LT ISZERO PUSH2 0x3B5 JUMPI DUP1 PUSH2 0x3A1 DUP9 DUP3 PUSH2 0x343 JUMP JUMPDEST DUP5 MSTORE PUSH1 0x20 DUP5 ADD SWAP4 POP POP PUSH1 0x20 DUP2 ADD SWAP1 POP PUSH2 0x38E JUMP JUMPDEST POP POP POP SWAP4 SWAP3 POP POP POP JUMP JUMPDEST PUSH0 DUP3 PUSH1 0x1F DUP4 ADD SLT PUSH2 0x3D3 JUMPI PUSH2 0x3D2 PUSH2 0x247 JUMP JUMPDEST JUMPDEST DUP2 CALLDATALOAD PUSH2 0x3E3 DUP5 DUP3 PUSH1 0x20 DUP7 ADD PUSH2 0x357 JUMP JUMPDEST SWAP2 POP POP SWAP3 SWAP2 POP POP JUMP JUMPDEST PUSH0 DUP1 PUSH1 0x40 DUP4 DUP6 SUB SLT ISZERO PUSH2 0x402 JUMPI PUSH2 0x401 PUSH2 0x1A6 JUMP JUMPDEST JUMPDEST PUSH0 DUP4 ADD CALLDATALOAD PUSH8 0xFFFFFFFFFFFFFFFF DUP2 GT ISZERO PUSH2 0x41F JUMPI PUSH2 0x41E PUSH2 0x1AA JUMP JUMPDEST JUMPDEST PUSH2 0x42B DUP6 DUP3 DUP7 ADD PUSH2 0x3BF JUMP JUMPDEST SWAP3 POP POP PUSH1 0x20 PUSH2 0x43C DUP6 DUP3 DUP7 ADD PUSH2 0x1CD JUMP JUMPDEST SWAP2 POP POP SWAP3 POP SWAP3 SWAP1 POP JUMP JUMPDEST PUSH2 0x44F DUP2 PUSH2 0x302 JUMP JUMPDEST DUP3 MSTORE POP POP JUMP JUMPDEST PUSH0 PUSH1 0x20 DUP3 ADD SWAP1 POP PUSH2 0x468 PUSH0 DUP4 ADD DUP5 PUSH2 0x446 JUMP JUMPDEST SWAP3 SWAP2 POP POP JUMP JUMPDEST PUSH0 DUP2 ISZERO ISZERO SWAP1 POP SWAP2 SWAP1 POP JUMP JUMPDEST PUSH2 0x482 DUP2 PUSH2 0x46E JUMP JUMPDEST DUP3 MSTORE POP POP JUMP JUMPDEST PUSH0 PUSH1 0x20 DUP3 ADD SWAP1 POP PUSH2 0x49B PUSH0 DUP4 ADD DUP5 PUSH2 0x479 JUMP JUMPDEST SWAP3 SWAP2 POP POP JUMP JUMPDEST PUSH0 DUP3 DUP3 MSTORE PUSH1 0x20 DUP3 ADD SWAP1 POP SWAP3 SWAP2 POP POP JUMP JUMPDEST PUSH32 0x446976696465722063616E6E6F74206265207A65726F00000000000000000000 PUSH0 DUP3 ADD MSTORE POP JUMP JUMPDEST PUSH0 PUSH2 0x4E5 PUSH1 0x16 DUP4 PUSH2 0x4A1 JUMP JUMPDEST SWAP2 POP PUSH2 0x4F0 DUP3 PUSH2 0x4B1 JUMP JUMPDEST PUSH1 0x20 DUP3 ADD SWAP1 POP SWAP2 SWAP1 POP JUMP JUMPDEST PUSH0 PUSH1 0x20 DUP3 ADD SWAP1 POP DUP2 DUP2 SUB PUSH0 DUP4 ADD MSTORE PUSH2 0x512 DUP2 PUSH2 0x4D9 JUMP JUMPDEST SWAP1 POP SWAP2 SWAP1 POP JUMP JUMPDEST PUSH32 0x4E487B7100000000000000000000000000000000000000000000000000000000 PUSH0 MSTORE PUSH1 0x12 PUSH1 0x4 MSTORE PUSH1 0x24 PUSH0 REVERT JUMPDEST PUSH0 PUSH2 0x550 DUP3 PUSH2 0x1AE JUMP JUMPDEST SWAP2 POP PUSH2 0x55B DUP4 PUSH2 0x1AE JUMP JUMPDEST SWAP3 POP DUP3 PUSH2 0x56B JUMPI PUSH2 0x56A PUSH2 0x519 JUMP JUMPDEST JUMPDEST DUP3 DUP3 MOD SWAP1 POP SWAP3 SWAP2 POP POP JUMP JUMPDEST PUSH32 0x696E646578206F7574206F6620626F756E647300000000000000000000000000 PUSH0 DUP3 ADD MSTORE POP JUMP JUMPDEST PUSH0 PUSH2 0x5AA PUSH1 0x13 DUP4 PUSH2 0x4A1 JUMP JUMPDEST SWAP2 POP PUSH2 0x5B5 DUP3 PUSH2 0x576 JUMP JUMPDEST PUSH1 0x20 DUP3 ADD SWAP1 POP SWAP2 SWAP1 POP JUMP JUMPDEST PUSH0 PUSH1 0x20 DUP3 ADD SWAP1 POP DUP2 DUP2 SUB PUSH0 DUP4 ADD MSTORE PUSH2 0x5D7 DUP2 PUSH2 0x59E JUMP JUMPDEST SWAP1 POP SWAP2 SWAP1 POP JUMP JUMPDEST PUSH32 0x4E487B7100000000000000000000000000000000000000000000000000000000 PUSH0 MSTORE PUSH1 0x32 PUSH1 0x4 MSTORE PUSH1 0x24 PUSH0 REVERT INVALID LOG2 PUSH5 0x6970667358 0x22 SLT KECCAK256 JUMP PUSH18 0xCF198CFB3702D2546465C6D4F12D25EBC491 0xA7 DUP11 0xCA SWAP14 CODECOPY TIMESTAMP PUSH27 0x8F0087040564736F6C634300081A00330000000000000000000000 "
		},
		"gasEstimates": {
			"creation": {
				"codeDepositCost": "320200",
				"executionCost": "360",
				"totalCost": "320560"
			},
			"external": {
				"LtExample(uint256,uint256)": "infinite",
				"byteExample(bytes1[],uint256)": "infinite",
				"modExample(uint256,uint256)": "infinite"
			}
		},
		"methodIdentifiers": {
			"LtExample(uint256,uint256)": "77439015",
			"byteExample(bytes1[],uint256)": "6a01208e",
			"modExample(uint256,uint256)": "2fb2b86b"
		}
	},
	"abi": [
		{
			"inputs": [
				{
					"internalType": "uint256",
					"name": "a",
					"type": "uint256"
				},
				{
					"internalType": "uint256",
					"name": "b",
					"type": "uint256"
				}
			],
			"name": "LtExample",
			"outputs": [
				{
					"internalType": "bool",
					"name": "",
					"type": "bool"
				}
			],
			"stateMutability": "pure",
			"type": "function"
		},
		{
			"inputs": [
				{
					"internalType": "bytes1[]",
					"name": "data",
					"type": "bytes1[]"
				},
				{
					"internalType": "uint256",
					"name": "index",
					"type": "uint256"
				}
			],
			"name": "byteExample",
			"outputs": [
				{
					"internalType": "bytes1",
					"name": "",
					"type": "bytes1"
				}
			],
			"stateMutability": "pure",
			"type": "function"
		},
		{
			"inputs": [
				{
					"internalType": "uint256",
					"name": "a",
					"type": "uint256"
				},
				{
					"internalType": "uint256",
					"name": "b",
					"type": "uint256"
				}
			],
			"name": "modExample",
			"outputs": [
				{
					"internalType": "uint256",
					"name": "",
					"type": "uint256"
				}
			],
			"stateMutability": "pure",
			"type": "function"
		}
	]
}